:020000040800F2
:10000000A0060020A5190008D9020008DB0200089C
:10001000DF020008E3020008E70200080000000019
:10002000000000000000000000000000EB020008DB
:10003000ED02000800000000EF020008F1020008D5
:10004000BF190008BF190008BF19000847030008BE
:10005000BF190008BF190008BF190008BF19000820
:10006000BF190008BF190008F3020008BF190008F3
:10007000BF190008BF190008BF190008BF19000800
:10008000BF190008BF190008BF190008BF190008F0
:10009000BF190008BF190008BF190008F5020008C1
:1000A000BF190008BF190008BF190008BF190008D0
:1000B000BF190008BF190008BF190008BF190008C0
:1000C000BF190008BF190008BF190008BF190008B0
:1000D000BF190008F7020008BF190008BF1900087F
:1000E000BF190008BF190008BF190008BF19000890
:1000F000BF190008BF190008BF190008BF19000880
:10010000BF190008BF190008BF190008BF1900086F
:10011000BF190008BF190008BF190008BF1900085F
:10012000BF190008BF190008BF190008BF1900084F
:1001300000F002F800F03CF80AA090E8000C8244BD
:100140008344AAF10107DA4501D100F031F8AFF29A
:10015000090EBAE80F0013F0010F18BFFB1A43F0A5
:1001600001031847201A0000401A0000103A24BF6B
:1001700078C878C1FAD8520724BF30C830C144BF0C
:1001800004680C607047000000230024002500264E
:10019000103A28BF78C1FBD8520728BF30C148BFEA
:1001A0000B6070471FB501F0DAFC1FBD10B510BD24
:1001B00001F09BFC1146FFF7F5FF00F050F801F04D
:1001C000B9FC03B4FFF7F2FF03BC01F0C1FC00006F
:1001D0001CB5684600F054FB9DF8050000F08EF950
:1001E0009DF8050008BB9DF8040000F087F99DF814
:1001F0000400D0B99DF8030000F080F99DF80300D9
:1002000098B99DF8020000F079F99DF802000128E4
:100210000BD19DF8010000F071F99DF80100012853
:1002200003D19DF8000000F069F91CBD1CB500F079
:10023000DEFA98B90D208DF8000003208DF801003A
:100240008DF8020011208DF8030013208DF80400B2
:100250001E208DF80500684600F05BFB1CBD00F019
:10026000A2F900F0FCF900F016F900F0CDF900F069
:100270008BF812A000F050F9FFF7D8FF00F0B4F8A7
:100280001AE000F0A4F840F6B83000F06DF900F084
:1002900098F8642000F068F900F0CEF80446012CCC
:1002A00001D100F09AF80B480078012804D1002011
:1002B00008490870FFF78CFFE3E700007468697372
:1002C00020697320612075617274207465737421D4
:1002D0000A00000000000020704700BFFEE700BFDA
:1002E000FEE700BFFEE700BFFEE7704770477047BC
:1002F00070477047704710B540F225511F4801F014
:1003000084F901280CD11D4801F0FFF8C4B2732C08
:1003100001D100F069F840F22551184801F09FF929
:1003200040F22771154801F070F90821134801F0D7
:1003300056F9012806D10821104801F05DF90F484F
:1003400001F0E3F810BD10B5012001F031FA98B1C9
:1003500001F002FA012001F03CFA00F023FB01F069
:10036000FBF901200649087001F0B8F905498842F7
:1003700002D3002001F0BBF910BD0000003801409D
:10038000000000207F51010008B50220ADF80000F8
:1003900010208DF8030002208DF8020069461648EF
:1003A00000F0D6FB4FF40070ADF8000010208DF87F
:1003B000030002208DF802006946104800F0C8FBD7
:1003C00008BD10B502210C4800F06FFC10BD10B53F
:1003D0000221094800F067FC10BD10B54FF4007110
:1003E000064800F062FC10BD10B54FF400710348E0
:1003F00000F059FC10BD0000001001400014014045
:10040000002107E04FF4966100BF0A00A1F101034B
:1004100099B2FAD10200A0F1010398B2F2D170476B
:1004200008B50120ADF8000048208DF803006946AA
:100430000A4800F08DFB08BD10B50121074800F007
:1004400018FC48B90A20FFF7DBFF0121034800F040
:1004500010FC08B9012010BD0020FCE7001001408D
:1004600008B54FF40070ADF8000003208DF80200CD
:1004700018208DF803006946314800F069FB4FF4FD
:100480008060ADF8000004208DF8030069462C4818
:1004900000F05EFB08BD00B587B0FFF7E1FF00206C
:1004A000ADF80400ADF806004FF40070ADF8080098
:1004B0000020ADF80A0001A9224800F09BFF4FF48C
:1004C000165003900020ADF81000ADF81200ADF802
:1004D0001400ADF818000C20ADF8160003A9194857
:1004E00000F013FF0121174800F09BFF012240F2AA
:1004F0002551144800F0A1FF07B000BD10B5044617
:100500002146104800F0FDFF00BF80210D4801F09A
:1005100066F80028F9D010BD10B504460BE014F8B9
:10052000011B084800F0EDFF00BF8021054801F0E5
:1005300056F80028F9D020780028F0D110BD00002E
:10054000000801400038014010B5002807DA0A070A
:10055000120E564B00F00F04241F1A5503E00A0731
:10056000120E534B1A5410BD002107E04FF4966150
:1005700000BF0A00A1F1010399B2FAD10200A0F173
:10058000010398B2F2D17047002106E0022100BFBA
:100590000A00A1F1010399B2FAD10200A0F101030E
:1005A00098B2F3D1704710B500F01EFC4FF48030C4
:1005B00000F03AFC00F077FC0446012C13D1002037
:1005C00000F0B3FC002000F0C2FCA00200F0B6FC7A
:1005D000E00300F0D8FC012000F099FC00BF00F01F
:1005E0009FFC0428FBD101211C2000F064FD0121A7
:1005F000202000F060FD0121084600F05CFD012193
:10060000880300F058FD10BD08B500214FF00060D0
:1006100000F0FCFD4FF4A06000F0B8FD25208DF83F
:10062000000000208DF801008DF8020001208DF8F7
:100630000300684600F0AFFD03208DF800000020A5
:100640008DF801008DF8020001208DF80300684646
:1006500000F0A1FD0121881EFFF776FF08BD10B54F
:1006600000BF4FF4FA50B0F1807F01D3012010E0B9
:1006700041F63F704FF0E02148610F214FF0FF300D
:10068000FFF762FF00204FF0E0218861072008613A
:10069000002008B100BFFEE710BD0649086000BF9A
:1006A000044909680029FBD17047000018ED00E0FB
:1006B00000E400E00800002070B50026082001F0EA
:1006C000D6F8EF4908700C2001F0D1F8EC494870D9
:1006D000102001F0CCF8EA498870142001F0C7F826
:1006E000E74988710021012000F0D2FF00F0F6FFF9
:1006F00004463EE00126E348241AE1488079401C84
:10070000C0B2DF498871082801DB01208871DC480C
:10071000407802280CD1DA490878C11700EB9171B2
:100720008910B0EB810101D01C2506E01D2504E0F5
:10073000D3484078401ED4490D5CD1488078401C95
:10074000C0B2CF498870A84213DD012088700846E6
:100750004078401CC0B248700C280ADD0120487067
:1007600008460078401CC0B20870642801DB0020F5
:100770000870C4488442BDD24FF46160B4FBF0F00D
:10078000BF49C8704FF46160B4FBF0F100FB114049
:100790003C21B0FBF1F0BA4908714FF46160B4FB41
:1007A000F0F100FB11403C21B0FBF1F201FB120023
:1007B000B3494871B6B1204600F099FFB04881793D
:1007C000142001F04EF8AE488178102001F049F86D
:1007D000AB4841780C2001F044F8A9480178082082
:1007E00001F03FF80121084600F052FF70BD10B53E
:1007F00001214FF0C05000F06BFC012001F071F8B6
:10080000042001F034F8A0F52541A5392AD000F0E4
:10081000FBFF012000F0C0FB00BF412000F027FBE0
:100820000028FAD04FF4807000F0CFFB012000F0D8
:10083000D2FB00F098FF00F08FFF0121084600F086
:1008400027FF00F089FF47F6FF7000F05DFF00F022
:1008500083FF4AF2A551042001F003F800F068FC80
:10086000002010BD00F07FFF00F076FFFFF724FFAF
:100870000121084600F00CFF00F06EFF0120F0E7B8
:1008800010B504460021012000F002FF00F064FFD3
:100890007B48007820707A4840786070784880788B
:1008A000A0707748C078E07075480079207174486E
:1008B0004079607172488079A07100F04DFF01218C
:1008C000084600F0E5FE10BD30B501460B78D8179C
:1008D00003EB907003EBA0004C78032C09DA0A7844
:1008E000D41702EB9474A410B2EB840401D1012458
:1008F00000E00024041B4878401E644D285C20441E
:100900008C782044072490FBF4F504FB1500C0B25A
:1009100030BD70B504460021012000F0B9FE00F0A2
:100920001BFF20785649087060784870A07888705E
:10093000E078C87020790871607948712046FFF727
:10094000C3FF4F498871A07108468179142000F0D7
:1009500088FF4B488178102000F083FF4848417899
:100960000C2000F07EFF46480178082000F079FF57
:100970004348C0784FF46161484341490979C1EB6C
:10098000011100EB81003E494979451800F0E4FE71
:10099000284600F0ACFE00F0DFFE0121084600F022
:1009A00077FE70BD10B536484079401CC0B234495E
:1009B00048713B2862DD0020487108460079401CE0
:1009C000C0B208713B2859DD002008710846C07884
:1009D000401CC0B2C870172850DD0020C8700846FF
:1009E0008079401CC0B28871082801DB0120887121
:1009F00023488179142000F034FF214840780228F0
:100A00000CD11F490878C11700EB91718910B0EB28
:100A1000810101D01C2406E01D2404E01848407820
:100A2000401E19490C5C16488078401CC0B214491D
:100A30008870A0421DDD0120887008464078401C67
:100A4000C0B248700C280FDD0120487008460078BD
:100A5000401CC0B20870632801DD002008700848FF
:100A60000178082000F0FDFE054841780C2000F0D8
:100A7000F8FE03488178102000F0F3FE10BD00005E
:100A80000C0000207F510100781B00086C1B00083F
:100A900010B50446CA48844208D10121042000F060
:100AA00024FB0021042000F020FB46E0C5488442DE
:100AB00008D10121082000F018FB0021082000F0D7
:100AC00014FB3AE0C048844208D10121102000F014
:100AD0000CFB0021102000F008FB2EE0BB488442F4
:100AE00008D10121202000F000FB0021202000F08F
:100AF000FCFA22E0B648844208D10121402000F0EF
:100B0000F4FA0021402000F0F0FA16E0B1488442E7
:100B100008D10121802000F0E8FA0021802000F0B7
:100B2000E4FA0AE0AC48844207D10121801500F0C4
:100B3000DCFA0021A01500F0D8FA10BD10B5012193
:100B4000084600F0D2FA0021012000F0CEFA10BDD4
:100B50002DE9F04102460025002600200023002454
:100B6000002791F803C00CF00F0591F803C01CF0AA
:100B7000100F03D091F802C04CEA0505B1F800C08F
:100B80001CF0FF0F31D0146800202BE04FF0010C57
:100B90000CFA00F3B1F800C00CEA03069E4220D123
:100BA00083004FF00F0C0CFA03F7BC4305FA03FC6B
:100BB0004CEA040491F803C0BCF1280F06D14FF0B1
:100BC000010C0CFA00FCC2F814C00AE091F803C052
:100BD000BCF1480F05D14FF0010C0CFA00FCC2F833
:100BE00010C0401C0828D1D31460B1F800C0BCF17B
:100BF000FF0F34DD546800202EE000F1080C4FF0A8
:100C0000010808FA0CF3B1F800C00CEA03069E4292
:100C100021D183004FF00F0C0CFA03F7BC4305FA07
:100C200003FC4CEA040491F803C0BCF1280F05D181
:100C300000F1080C08FA0CF8C2F8148091F803C00F
:100C4000BCF1480F07D100F1080C4FF0010808FA79
:100C50000CF8C2F81080401C0828CED35460BDE8C0
:100C6000F0814FF6FF710180022181700421C17073
:100C700070470246002093680B4201D0012000E03B
:100C8000002070470146886880B270470246002005
:100C9000D3680B4201D0012000E0002070470146DC
:100CA000C86880B2704701617047416170470AB1FE
:100CB000016100E041617047C16070474FF48032CC
:100CC0000A4382618161826182698269704702465A
:100CD0000020424B18684FF68073184040EA02101B
:100CE00008433E4B186070473D49C8617047F0B5F6
:100CF0000A46002300240021002500F00046B6F13A
:100D0000004F02D1354EF16901E0344E7168C0F3F5
:100D1000034583B200F44016B6F5401F08D121F018
:100D200070612E4E766826F070662C4F7E6012E061
:100D300000F48016B6F5801F06D1032606FA05F4E6
:100D4000A14341F0706106E0460D360103FA06F654
:100D5000B14341F0706122B1460D360103FA06F647
:100D6000314300F00046B6F1004F02D11B4EF16155
:100D700001E01A4E7160F0BD30B500228B071C0FE8
:100D80000F2303FA04F2154B08338C1053F8243068
:100D90009343124C08348D1044F8253023468C10B0
:100DA00053F824308C07240F00FA04F423430B4C2F
:100DB00008348D1044F8253030BD0A49086070476A
:100DC00000080140000C01400010014000140140E7
:100DD00000180140001C01400020014000000140BB
:100DE00000002042DC002042DB48006840F00100A7
:100DF000D949086008464068D8490840D649486043
:100E000008460068D6490840D3490860084600688B
:100E100020F4802008600846406820F4FE00486006
:100E20004FF41F0088607047CB49096821F4803176
:100E3000C94A11601146096821F480211160B0F59A
:100E4000803F03D0B0F5802F0ED106E0C24909687B
:100E500041F48031C04A116007E0BF49096841F49C
:100E6000A021BD4A116000E000BF00BF704710B56F
:100E700001460022002300204A11012A02D1B64C6B
:100E8000236806E0022A02D1B34C236A01E0B24C87
:100E9000636A01F01F02012494401C4201D001202A
:100EA00000E0002010BD70B500240025002600BF22
:100EB0003120FFF7DCFF0646641CB4F5A06F01D0BB
:100EC000002EF5D03120FFF7D2FF08B1012500E058
:100ED0000025284670BD014600209F4A106820F07A
:100EE000F80040EAC100106070479E4908607047F2
:100EF00002460020984B586820F47C1042EA010317
:100F00001843954B586070479649086670470146EC
:100F10000020914A506820F0030008435060704759
:100F20008D48406800F00C007047014600208A4A56
:100F3000506820F0F00008435060704701460020E0
:100F4000854A506820F4E0600843506070470146CD
:100F50000020814A506820F4605040EAC10050608F
:100F6000704729B17C4A527A02437B4B5A7206E0A1
:100F7000794A527AC343DBB21A40774B5A727047B0
:100F800079490860704701460020734A506820F490
:100F900040400843506070470021744A11706E4A07
:100FA00082F82010012802D0042808D103E0012192
:100FB0006E4A117004E005216C4A117000E000BF18
:100FC00000BF70476A49086070476349096A014376
:100FD000614A1162704767490860704730B5002167
:100FE0000022002400235C4D6D6805F00C0121B146
:100FF000042905D0082923D105E05F4D056022E0D2
:101000005D4D05601FE0544D6D6805F47012524D42
:101010006D6805F48034022505EB92421CB9574DEA
:10102000554305600BE04C4D6D6815F4003F03D04F
:10103000524D5543056002E04F4D5543056002E0B7
:101040004D4D056000BF00BF434D6D6805F0F001D8
:1010500009094B4D6B5C0568DD4045603E4D6D6890
:1010600005F4E061090A464D6B5C4568DD4085602A
:10107000394D6D6805F46051C90A414D6B5C456896
:10108000DD40C560344D6D6805F44041890B3D4D30
:101090006B5CC568B5FBF3F5056130BD29B12E4A1F
:1010A000526902432C4B5A6104E02B4A5269824335
:1010B000294B5A61704729B1274A92690243264B4E
:1010C0009A6104E0244A92698243234B9A617047F3
:1010D00029B1214AD26902431F4BDA6104E01E4A5A
:1010E000D26982431C4BDA61704729B11A4AD2682F
:1010F0000243194BDA6004E0174AD2688243164B68
:10110000DA60704729B1144A12690243124B1A611E
:1011100004E0114A126982430F4B1A6170471A4961
:10112000086070470F49C86470470B49C871704721
:101130000948406A40F0807007494862704701469C
:101140000020054A92680A4201D0012000E00020F8
:101150007047014988727047001002400000FFF894
:10116000FFFFF6FE00004242D8004242201002403B
:10117000800442423C04424200127A0000093D00D1
:10118000130000202300002040044242364901435E
:10119000364A1160704770B5002100230F22C478D1
:1011A0004CB3324C246804F4E064C4F5E0644FEAC4
:1011B0001421C1F1040322FA01F2447804FA03F184
:1011C000847804EA020444EA01014FEA0111284C40
:1011D0000678A155047804F01F054FF0010404FAC5
:1011E00005F405784FEA65154FF0E02606EB850516
:1011F000C5F8004109E0047804F01F050124AC4063
:101200001C4D0678761145F8264070BD1A4A0A40F2
:1012100002431A4B1A60704741B1194A126842EAF8
:1012200000024FF0E023C3F8102D07E0144A1268C3
:1012300022EA00024FF0E023C3F8102D7047042883
:1012400008D14FF0E021096941F004014FF0E0229C
:10125000116107E04FF0E021096921F004014FF02E
:10126000E0221161704700000000FA050CED00E07B
:1012700000E400E080E100E080FFFF1F08ED00E0F7
:1012800010ED00E010B50446FC48844209D101216C
:101290008803FFF72AFF00214FF48040FFF725FF66
:1012A00032E0F748844209D101214804FFF72AFFC0
:1012B00000214FF40030FFF725FF25E0F14884427C
:1012C00009D101218804FFF71DFF00214FF4802080
:1012D000FFF718FF18E0EC48844209D10121C80447
:1012E000FFF710FF00214FF40020FFF70BFF0BE08A
:1012F000E648844208D101210805FFF703FF0021D9
:101300004FF48010FFF7FEFE10BD2DE9F04786B0C8
:1013100005460E460024A24600BFA1460027B0891C
:1013200000B100BF2F462C8A4CF6FF700440F088B5
:1013300004432C82AC894EF6F3100440B088318906
:101340000843718908430443AC81AC8A4FF6FF40DF
:101350000440B0890443AC8201A8FFF73FFEC748B0
:10136000874202D1DDF810A001E0DDF80CA0A889C9
:1013700010F4004F08D00AEBCA0000EB0A103168E5
:101380004900B0FBF1F807E00AEBCA0000EB0A10D5
:1013900031688900B0FBF1F86420B8FBF0F004017B
:1013A0002009642101FB1089A88910F4004F08D09E
:1013B000322000EBC900B0FBF1F000F0070004435D
:1013C00008E0322000EB09106421B0FBF1F000F0DE
:1013D0000F0004432C8106B0BDE8F0874FF416518E
:1013E000016000218180C18001810C2141810021A7
:1013F0008181704710B502460020108A4FF2FF032A
:1014000018400B884C8823438C882343CC88234383
:101410001843108210BD0021018041808180C1806D
:10142000704721B1828942F40052828104E08289AE
:101430004DF6FF731A4082817047F0B503460024D1
:10144000002600250020A1F510676A3F00D100BFEB
:101450001846C1F3421401F01F06012707FA06F5EA
:10146000012C01D10C3004E0022C01D1103000E03D
:1014700014301AB107682F43076002E00768AF43D2
:101480000760F0BD10B51AB1838A0B43838204E074
:10149000838ACC43A4B22340838210BD028A4FF6D4
:1014A000F0731A400282028A0A43028270478289DC
:1014B0004FF2FF731A40828182890A43828170470A
:1014C00021B1828942F00202828104E082894FF6D2
:1014D000FD731A4082817047028A4FF6DF731A400B
:1014E0000282028A0A430282704721B1028A42F4D0
:1014F0008042028204E0028A4BF6FF731A400282A5
:101500007047C1F308028280704701468888C0F3A3
:1015100008007047818941F0010181817047028B89
:10152000D2B20283028B42EA012202837047028B0D
:1015300002F47F420283028B0A430283704721B187
:10154000828A42F02002828204E0828A4FF6DF73B0
:101550001A408282704721B1828A42F01002828250
:1015600004E0828A4FF6EF731A408282704721B1FD
:10157000828A42F00802828204E0828A4FF6F77380
:101580001A408282704721B1828942F400428281EE
:1015900003E08289C2F30E028281704721B1828A00
:1015A00042F40062828204E0828A4FF2FF731A40A2
:1015B00082827047828A4FF6FB731A408282828A47
:1015C0000A438282704721B1828A42F002028282FB
:1015D00004E0828A4FF6FD731A4082827047024609
:1015E0000020B1F5007F00D100BF13880B4201D06D
:1015F000012000E00020704701F40072B2F5007F86
:1016000000D100BFCA430280704770B50246002473
:10161000002300250020A1F510666A3E00D100BF1E
:10162000C1F3421501F01F03012606FA03F3012D51
:1016300002D19689334006E0022D02D1168A33404A
:1016400001E0968A33400C12012606FA04F416884B
:10165000344013B10CB1012000E0002070BD10B582
:1016600000220023A1F510646A3C00D100BF0A12D9
:1016700001249440A3B2DC43048010BD0038014033
:101680000044004000480040004C00400050004032
:1016900039B1554A128842EA0002544BA3F8002897
:1016A00009E0514A12886FEA00039BB202EA030282
:1016B0004E4BA3F8002870474D48008840F01000BA
:1016C0004A49A1F804087047494800884FF6EF716D
:1016D00000EA01004549A1F8040870470021454887
:1016E00001884248B0F8180841EA0040704700B548
:1016F0000246FFF7E1FF100C3F4908803B49A1F883
:101700001C28FFF7E1FF00BD00B50246FFF7D4FF3C
:10171000C2F30340394908803449A1F80C28FFF787
:10172000D3FF00BD00B50246FFF7C6FF100C3449D9
:1017300008802E49A1F82428FFF7C6FF00BD00202D
:10174000304909884FEA01714FEA11302749B1F851
:10175000141841EA0000704700BF2548008810F0C7
:10176000200FFAD07047224800884FF6F77100EA40
:1017700001001E49A1F8040800BF1D48008810F0B0
:10178000080FFAD0704701460020194A12880A4211
:1017900001D0012000E000207047154909886FEA58
:1017A000000292B201EA0201104AA2F8041870473E
:1017B000014600200E4A128802EA0102D0B20B4A0A
:1017C000B2F800280A4202D008B1012000E000204F
:1017D0007047074909886FEA000292B201EA0201E4
:1017E000024AA2F804187047002800400020004078
:1017F000042800401C280040182800400828004009
:10180000202800401028004010B50120FFF787FC79
:101810000020FFF784FC10BD24490860704724496C
:101820000860704723490860704701460020224A3B
:1018300010884FF67F4200EA020040EA01001F4A8A
:10184000A2F82C0C7047014600201B4A10884FF666
:10185000807200EA020040EA0100184AA2F82C0C4B
:1018600070470022144A2C3A024411607047014626
:101870000022114A2C3A0A44108870471048006828
:10188000C0B270470F48008840F001000B49A1F832
:10189000340C70470C480068C0B270470948008893
:1018A00040F002000549A1F8340C704704860D424F
:1018B00000860D4288860D422C6C0040006000407E
:1018C000A0860D42346C0040A4860D4210B5012163
:1018D0000807FFF717FC00214FF08050FFF712FCBC
:1018E00010BD2C49086270472A49086170470146BB
:1018F0000020294A106820F0E0000843106070477B
:1019000026490860704710B502460020224B18682F
:1019100020F0030010431860214B1B6843F00403C0
:101920004FF0E024C4F8103D012901D130BF00E0A0
:1019300020BF1B4B1B6823F004034FF0E024C4F8C6
:10194000103D10BD1448006840F0040012490860C2
:101950000846006840F0020008601148006840F046
:1019600004004FF0E021C1F8100D00BF00BF30BFF0
:10197000704701460020084A52680A4201D00120FF
:1019800000E0002070470449096841EA8001024AEA
:101990001160704700000E4200700040A0000E422F
:1019A00010ED00E00948804709480047FEE7FEE7E0
:1019B000FEE7FEE7FEE7FEE7FEE7FEE7FEE7FEE7FF
:1019C00004480549054A064B70470000E71900081E
:1019D00031010008A0000020A0060020A002002085
:1019E000A0020020704710B53648006840F00100A2
:1019F0003449086008464068334908403149486026
:101A000008460068314908402E49086008460068C9
:101A100020F4802008600846406820F4FE004860FA
:101A20004FF41F008860FFF7DDFF4FF0006028498A
:101A3000086010BD10B5002100200022214B5B681A
:101A400003F00C0121B1042906D0082928D107E0B0
:101A5000204B214C236027E01E4B1F4C236023E0CA
:101A6000184B5B6803F47010164B5B6803F480320C
:101A7000022303EB904022B9184B4343164C2360DA
:101A80000DE0104B5B6813F4003F04D0134B43434D
:101A9000114C236003E00F4B43430F4C236003E0E2
:101AA0000C4B0D4C236000BF00BF064B5B68C3F3BB
:101AB00003130B4CE15C084B1B68CB40064C2360C6
:101AC00010BD0000001002400000FFF8FFFFF6FE0E
:101AD00008ED00E000127A002800002000093D0017
:101AE0002C000020704770477047754600F028F8BA
:101AF000AE4605006946534620F00700854618B0FB
:101B000020B5FFF75DFFBDE820404FF000064FF025
:101B100000074FF000084FF0000B21F00701AC4622
:101B2000ACE8C009ACE8C009ACE8C009ACE8C00941
:101B30008D4670470446AFF300802046FEF741FB18
:101B4000004870473C0000200048704740000020DB
:101B500001491820ABBEFEE726000200704710B511
:101B6000FFF7F2FF4FF00001016010BD0602020511
:101B700000030501040602041F1C1F1E1F1E1F1F59
:101B80001E1F1E1FA41B0008000000203C000000B8
:101B90006C010008E01B00083C0000206406000007
:101BA00088010008000000000000000000000000A4
:101BB000000000000000000000000001020304011A
:101BC00002030406070809020406080000127A004E
:101BD00000000000000000000102030406070809DD
:0400000508000131BD
:00000001FF
